:100000000C94E7030C940F040C940F040C940F044D
:100010000C940F040C940F040C940F040C94C60859
:100020000C940F040C940F040C941A160C94A11643
:100030000C940F040C940F040C940F040C940F04F4
:100040000C940F040C940F040C940F040C940F04E4
:100050000C940F040C940F040C940F040C94660E73
:100060000C940F040C945A110C94A1110C940F04CD
:100070000C940F040C940F040C940F040C940F04B4
:100080000C9499130C940F040C940F040C940F040B
:100090000C94D30C0C940F040C9429050C940F04AD
:1000A0000C940F040C940F040C940F040000000037
:1000B000007CDAF2DA7C7CD6F2D67C387C3E7C3866
:1000C000183C7E3C1838EABEEA38387AFE7A3800A6
:1000D000183C1800FFE7C3E7FF0018241800FFE7EB
:1000E000DBE7FF0C125C607064949E946402FEA0D7
:1000F000A0E002FEA0A4FC5A3CE73C5AFE7C383843
:10010000101038387CFE2844FE4428FAFA00FAFA27
:100110006090FE80FE006691A95606060606062936
:1001200045FF452910207E201008047E0408101089
:1001300054381010385410107808080808307830F7
:1001400078300C1C7C1C0C60707C7060000000001F
:10015000000000FA000000E000E00028FE28FE2871
:100160002454FE5448C4C81026466C926A040A00FF
:1001700010E0C00000384482000082443800543847
:10018000FE385410107C101000010E0C00101010DE
:100190001010000006060004081020407C8A92A27D
:1001A0007C0042FE02004E92929262848292B2CC15
:1001B000182848FE08E4A2A2A29C3C5292928C828B
:1001C000848890E06C9292926C6292929478000093
:1001D00028000000022C0000001028448228282853
:1001E0002828008244281040809A90607C82BA9A25
:1001F000723E4888483EFE9292926C7C8282824493
:10020000FE8282827CFE92929282FE909090807C0E
:1002100082828ACEFE101010FE0082FE820004024E
:1002200082FC80FE10284482FE02020202FE403858
:1002300040FEFE201008FE7C8282827CFE90909020
:10024000607C828A847AFE90989462649292924C46
:10025000C080FE80C0FC020202FCF8040204F8FC2C
:10026000021C02FCC6281028C6C0201E20C0869A88
:1002700092B2C200FE828282402010080400828274
:1002800082FE2040804020020202020200C0E010F4
:1002900000042A2A1E02FE1422221C1C22222214DE
:1002A0001C222214FE1C2A2A2A1800107E904018B4
:1002B0002525391EFE1020201E0022BE0200040249
:1002C00002BC00FE081422000082FE02003E201E36
:1002D000201E3E1020201E1C2222221C3F182424F7
:1002E00018182424183F3E10202010122A2A2A24ED
:1002F0002020FC22243C0202043E38040204383C44
:10030000020C023C2214081422320909093E22265A
:100310002A322200106C82000000EE000000826C85
:10032000100040804020403C64C4643C7885858651
:10033000485C0202045E1C2A2AAA9A84AAAA9E8207
:10034000842A2A1E8284AA2A1E02042AAA9E023015
:10035000784A4E489CAAAAAA9A9C2A2A2A9A9CAA17
:100360002A2A1A0000A23E820040A2BE420080A2B9
:100370003E020F9424940F0F14A4140F3E2AAAA235
:1003800000042A2A3E2A3E5090FE924C9292924CB1
:100390004C1212124C4C5212120C5C8282845E5C23
:1003A0004202041E00B90505BE9C2222229CBC020A
:1003B0000202BC3C24FF2424127E92C266D4F43F85
:1003C000F4D4FF90946F0403117E90C0042A2A9EF7
:1003D00082000022BE820C1212524C1C0202445EA9
:1003E000005E50504EBEB0988CBE649494F4146479
:1003F000949494640C12B202041C1010101010108B
:1004000010101CF40813355DF408142C5F0000DE96
:100410000000102854284444285428105500AA00ED
:100420005555AA55AA55AA55AA55AA000000FF007D
:10043000080808FF00282828FF000808FF00FF0818
:10044000080F080F2828283F002828EF00FF000089
:10045000FF00FF28282F203F2828E808F80808F880
:1004600008F8282828F8000808080F00000000F8FD
:1004700008080808F8080808080F08000000FF0826
:100480000808080808080808FF08000000FF2800FE
:1004900000FF00FF0000F808E800003F202F282898
:1004A000E808E828282F202F0000FF00EF28282840
:1004B00028282828EF00EF282828E8280808F80826
:1004C000F82828282F2808080F080F0000F808F837
:1004D000000000F8280000003F2800000F080F0867
:1004E00008FF08FF282828FF28080808F80000004F
:1004F000000F08FFFFFFFFFF0F0F0F0F0FFFFFFFA2
:100500000000000000FFFFF0F0F0F0F01C22221CC1
:10051000223E54547C287E40406060407E407E40B5
:10052000C6AA9282C61C22223C20027E0478046065
:10053000407E404099A5E7A5993854925438324EF0
:10054000804E320C52B2B20C0C121E120C3D465AA6
:1005500062BC7C929292007E8080807E545454547F
:10056000542222FA2222028A5222020222528A02B1
:100570000000FF80C00701FF00001010D6D6106CED
:10058000486C246C60F090F06000001818000000C7
:100590000808000C02FF808000F88080780098B87E
:1005A000E848003C3C3C3C00000000240027002AB6
:1005B000002D00300000000000250028002B002E38
:1005C000003100000000002300260029002C002F2D
:1005D00000040404040403040502020202040302EA
:1005E00002020206060606060604040202020404CB
:1005F0000802011040804010204080408008020422
:1006000001804020100201108010204040000000B6
:100610000200080E0000030401000B0000000000AF
:1006200000000000000000000000000706050401B3
:1006300000080A0B0C0D09080B0002020201000958
:10064000040000010202000005240010010524013D
:100650000101042402060524060001070581031098
:10066000004009040100020A0000000705020240E0
:10067000000007058302400000040309044172647E
:1006800075696E6F204C656F6E6172646F004172A8
:100690006475696E6F204C4C43001201000200002B
:1006A00000404123368000010102000112010002D6
:1006B000020000404123368000010102000100C118
:1006C0008081C105010902A1010901A1008501057F
:1006D000091901290315002501950375018102956A
:1006E0000175058103050109300931093815812596
:1006F0007F750895038106C0C005010906A1018523
:1007000002050719E029E715002501750195088103
:100710000295017508810395067508150025650584
:1007200007190029658100C00904020001030000C7
:100730000009210101000122650007058403400032
:100740000100000000000000002A2B28000000002B
:100750000000000000000000000000000000000099
:10076000002C9EB4A0A1A2A434A6A7A5AE362D3716
:1007700038271E1F20212223242526B333B62EB767
:10078000B89F8485868788898A8B8C8D8E8F90917F
:1007900092939495969798999A9B9C9D2F3130A30C
:1007A000AD350405060708090A0B0C0D0E0F1011D4
:1007B00012131415161718191A1B1C1DAFB1B0B55A
:1007C0000000040B4A0B8D10DE1256152A18112456
:1007D0001FBECFEFDAE0DEBFCDBF15E0A0E0B1E095
:1007E000ECE9F4E302C005900D92AA35B107D9F700
:1007F00018E0AAE5B5E001C01D92A536B107E1F702
:1008000017E0CEECD7E004C02297FE010E94481A00
:10081000C23CD107C9F70E9434130C944C1A0C94B3
:100820000000FB01DC0102C001900D9241505040DC
:10083000D8F708956817790768F4FB01DC01E40F25
:10084000F51FA40FB51F02C002900E9241505040F8
:10085000D8F708950C94110421E030E00CC000009A
:10086000000000000000000000009F5F9A35B9F70B
:100870002150304011F090E0F2CF3C9A8093BB00C1
:1008800084E88093BC000895CF92DF92EF92FF92AC
:100890000F931F93CF93DF937C01209188063091B3
:1008A000890680918A0640E090E02817390708F40D
:1008B00041E0209188063091890680918B0690E076
:1008C0002817390708F4426020918806309189067C
:1008D00080918C0690E02817390708F444608091D5
:1008E00088069091890601969093890680938806E0
:1008F00080918806909189068436910521F41092A2
:1009000089061092880680918D06882339F427EF96
:10091000C22EC42287E070E0DD2405C098E0C92E15
:10092000C42AF8CF7F5F082F10E080FF77C0472FE1
:1009300050E0F701E40FF51F85A195A1907881FDA6
:1009400004C0992311F420E05BC0D701A40FB51FA8
:1009500092966C919297992309F451C0FA01EE0F87
:10096000FF1FEE0DFF1D82AD93AD009709F044C04F
:1009700095968C91262F30E080FF08C0C901880F22
:10098000991F220F232F221F330B08C0C9019595F1
:1009900087953695322F222737952795822B282F3A
:1009A000262311F4282F262BE701C40FD51F2AA3D5
:1009B000FA01EE0FFF1FEE0FFF1FEE0DFF1D80A5CA
:1009C00091A5A2A5B3A50197A109B10980A791A7F7
:1009D000A2A7B3A70097A105B10551F0FA01EE0F48
:1009E000FF1FEE0DFF1D84A995A993AF82AF08C02C
:1009F0008DA18F778DA304C0019793AF82AF262F6F
:100A0000713041F0713018F0723041F405C0207F30
:100A1000C22A04C02F7001C0207FD22A15950795E5
:100A2000802F723009F07ECF5D98CEBC0DB407FEEA
:100A3000FDCF8EB5DEBC0DB407FEFDCF8EB55D9A41
:100A4000DF91CF911F910F91FF90EF90DF90CF90AA
:100A500008951F920F920FB60F9211241F932F9398
:100A60003F934F935F936F937F938F939F93AF9336
:100A7000BF93EF93FF931FB71092BF001092BE0079
:100A800082E396E00E9444041FBFFF91EF91BF9163
:100A9000AF919F918F917F916F915F914F913F9116
:100AA0002F911F910F900FBE0F901F901895CF930D
:100AB000DF93962F50E0BA017695762F66277795CB
:100AC000679585E0280290011124892F60507F4F9F
:100AD000E9012596F901E455FF4FE491DB01A80FE8
:100AE000B11DEC938F5F2F5F3F4F2C173D0791F7A0
:100AF000292F2B5F342F330F330F330F692F665F8E
:100B00004F5F5F4F440F440F440F809184062817B6
:100B100010F42093840680918506861710F4609364
:100B2000850680918606381710F4309386068091EA
:100B30008706841710F440938706DF91CF910895BC
:100B40000F931F93062F142F3C9A84EA8093BC00C6
:100B500020E030E08091BC0087FD38C02A353105A7
:100B6000A9F12F5F3F4FF6CF8091BC0087FD35C0C4
:100B70002A35310591F12F5F3F4FF6CF8091BC00B0
:100B800087FD31C02A35310571F12F5F3F4FF6CF18
:100B90008091BC0087FD33C02A35310581F12F5F7C
:100BA0003F4FF6CF8091BC0087FD32C02A3531051A
:100BB00079F12F5F3F4FF6CF8091BC0087FD2DC0AC
:100BC0002A35310551F12F5F3F4FF6CF812F880F26
:100BD0000E942C0420E030E0C7CF802F0E942C041C
:100BE00020E030E0CBCF3C9A84EA8093BC00110F28
:100BF000812F81600E942C0420E030E0C9CF8091D9
:100C0000BC008F70806C8093BC0020E030E0CACFC5
:100C10009091BB0020E030E0CFCF84E98093BC000E
:100C20008091BC008B7F8093BC008091BC0084606D
:100C30008093BC00892F1F910F9108950F931F93EC
:100C4000162F042F3C9A84EA8093BC0040E050E0C9
:100C50008091BC0087FD24C04A35510509F14F5FE2
:100C60005F4FF6CF8091BC0087FD21C02A3531054A
:100C7000F1F02F5F3F4FF6CF8091BC0087FD1DC084
:100C80002A353105D1F02F5F3F4FF6CF8091BC0060
:100C900087FD19C02A353105B1F02F5F3F4FF6CFE0
:100CA000822F880F0E942C0420E030E0DBCF812FC0
:100CB0000E942C0420E030E0DFCF802F0E942C0423
:100CC00020E030E0E3CF84E98093BC001F910F91D6
:100CD0000895CF93DF93EC016DE04DE10E94A005F4
:100CE0008A3219F02FEF3FEF37C0CE016AE24DE1B3
:100CF0000E94A005482F4E7FCE016AE22DE10E949E
:100D00001E06CE016EE040E02DE10E941E06CE01DF
:100D10006AE24DE10E94A005482F477CCE016AE2BD
:100D20002DE10E941E06CE016AE24DE10E94A0055F
:100D3000482FCE016AE22DE10E941E06CE016AE232
:100D40004DE10E94A005482F4160CE016AE22DE1ED
:100D50000E941E0621E030E0C901DF91CF91089585
:100D60001F93162FF8945D9A81E160E00E941F1096
:100D70001EBD0DB407FEFDCF81E161E00E941F1092
:100D800078941F910895FF920F931F938C01F62E74
:100D900084E061E00E941F10C8016F2D0E94B00620
:100DA0001F910F91FF900895FF920F931F938C0155
:100DB000F62E84E060E00E941F10C8016F2D0E9493
:100DC000B0061F910F91FF9008958F929F92AF925E
:100DD000BF92CF92DF92EF92FF920F931F93CF9328
:100DE000DF93EC017AE0872E75E0972E20E030E06B
:100DF000AA24BB2468E0C62ED12CC20ED31E80913B
:100E0000860690E08C159D05D4F58091870690E0CC
:100E1000821793070CF440C0F4016081606BCE012F
:100E20000E94D4061091840600918506612F6F5FA1
:100E30006F70CE010E94D406612F70E06F5F7F4F0C
:100E400054E0759567955A95E1F76F706061CE0132
:100E50000E94D406CE0160EE0E94D40640E0E42E4B
:100E600041E0F42EEA0CFB1C08C0F701E10FF11D74
:100E7000CE0160810E94C3061F5F0117B0F708947E
:100E8000811C911C80E890E0A80EB91E90E4C91660
:100E9000D10411F09601AECF8FE7809384061092B3
:100EA00085068FE38093860610928706DF91CF91A7
:100EB0001F910F91FF90EF90DF90CF90BF90AF9078
:100EC0009F908F900895EF92FF921F937C01162FB1
:100ED00061E80E94D4061F73C701612F0E94D406E7
:100EE0001F91FF90EF900895CF93DF93EC0184E082
:100EF00061E00E94920F8CE061E00E94920F81E11C
:100F000061E00E94920F81E160E00E941F1088EE74
:100F100093E020E931E0F9013197F1F70197D9F732
:100F20008CE060E00E941F1088EE93E020E931E041
:100F3000F9013197F1F70197D9F78CE061E00E9450
:100F40001F10CE0163EA0E94D406CE0161EA0E941E
:100F5000D406CE0160EC0E94D406CE0160E60E9469
:100F6000D406CE016CE20E94D40684EF91E020E921
:100F700031E0F9013197F1F70197D9F7CE016EE22F
:100F80000E94D40684EF91E020E931E0F901319725
:100F9000F1F70197D9F7CE016FE20E94D40680E401
:100FA0009CE90197F1F7CE0166E20E94D406809198
:100FB0008406882311F010928406809185068F376D
:100FC00018F48FE78093850680918606882311F0B8
:100FD00010928606809187068F3318F48FE38093F2
:100FE0008706DF91CF9108958FE061E00E94920F14
:100FF00080E161E00E94920F81E161E00E94920F26
:101000008FE060E00E941F1080E160E00E941F10EE
:1010100081E161E00E941F108CB580618CBD8CB5B0
:1010200080648CBD8CB58C7F8CBD8DB581608DBD91
:1010300008950F931F938C010E94F407C8010E942A
:101040007407C8016FEA0E94D406C80164EA0E94CE
:10105000D406C80160E00E9463071F910F910895B4
:1010600080E091E060E871E040E853E00E941A04FB
:1010700080E8E0E8F4E0DF011D928A95E9F78091CD
:101080008406882311F010928406809185068F379C
:1010900018F48FE78093850680918606882311F0E7
:1010A00010928606809187068F3318F48FE3809321
:1010B00087060895CF92DF92EF92FF920F931F93CE
:1010C000CF93DF938C016B017A01C0E0D0E034C094
:1010D000F601EC0FFD1F20812A3041F48091830638
:1010E0008F5F809383061092820619C02D30B9F06D
:1010F000C80160918206409183060E945705809145
:1011000082068A5F8093820690E08A3791053CF0E0
:1011100010928206809183068F5F80938306809170
:101120008306883040F0C8010E9430088091830611
:101130008150809383062196CE15DF0548F2DF911A
:10114000CF911F910F91FF90EF90DF90CF90089576
:101150000F931F93142F052F0E945A08812F902F51
:101160001F910F910895DF93CF930F92CDB7DEB704
:101170006983BE016F5F7F4F41E050E00E945A08D3
:1011800081E090E00F90CF91DF9108951F920F9230
:101190000FB60F921124EF92FF920F931F932F938C
:1011A0003F934F935F936F937F938F939F93AF93EF
:1011B000BF93EF93FF9380912B06813009F469C0B0
:1011C0000E94AE0E9B01AC018CB1682F70E0607480
:1011D000707080915E0590915F05A0916005B0915F
:1011E000610579018A01E81AF90A0A0B1B0BE092E2
:1011F0005A05F0925B0500935C0510935D058091A4
:101200005A0590915B05A0915C05B0915D058052F7
:101210009E44A040B040D4F1672B19F410922A06E6
:101220002CC0E0912A06F0E080915A0590915B0570
:10123000A0915C05B0915D05EE0FFF1FEE0FFF1F43
:10124000EE59FA4F9183808318C0E0912A06F0E0AE
:1012500080915A0590915B05A0915C05B0915D0568
:10126000EE0FFF1FEE0FFF1FEE59FA4F938382839D
:1012700080912A068F5F80932A0620935E05309323
:101280005F05409360055093610503C0672BE9F249
:10129000C8CFFF91EF91BF91AF919F918F917F91B7
:1012A0006F915F914F913F912F911F910F91FF90FF
:1012B000EF900F900FBE0F901F901895EF92FF9236
:1012C0000F931F93162F042F85EDE82E86E0F82E3E
:1012D000C7016EE170E00E94100BC701612F0E94F0
:1012E000920BC701602F0E94920BC7010E94D50B81
:1012F0001F910F91FF90EF900895CF93DF9385EDAD
:1013000096E06EE170E00E94100B85ED96E063E0E0
:101310000E94920B85ED96E00E94D50B85ED96E03C
:101320006EE170E00E94100B85ED96E06EE170E0DA
:1013300046E050E00E94E60B85ED96E00E941A0B15
:10134000069771F4C0E0D0E085ED96E00E94230B93
:10135000FE01E45DF94F80832196C630D105A1F7E7
:1013600085ED96E00E94D50BDF91CF9108950F9304
:101370001F938C0163E070E046E050E00E947D091D
:1013800040912C0620912D06742F60E030E0622BF6
:10139000732B882777FD8095982F0E9435192FE1B0
:1013A00035E84BE65FE30E94C119F8016483758359
:1013B0008683978340912E0620912F06742F60E03C
:1013C00030E0622B732B882777FD8095982F0E9441
:1013D00035192FE135E84BE65FE30E94C119F801AA
:1013E000608771878287938740913006209131060C
:1013F000742F60E030E0622B732B882777FD809597
:10140000982F0E9435192FE135E84BE65FE30E94E3
:10141000C119F80164877587868797871F910F9197
:101420000895CF93DF93EC0188E597E060E875E2DB
:101430000E94521086EA97E040E855E260E070E0D2
:101440000E94D1118DE061E00E94920F8DE060E07A
:101450000E941F108BE061E00E94920F8BE060E021
:101460000E941F1084E160E00E94920F85E161E01C
:101470000E94920F86E161E00E94920F87E161E095
:101480000E94920F86E061E00E94920F8AE061E084
:101490000E94920F85E060E00E94920F89E061E077
:1014A0000E94920F8EE896E060E070E00E94090BC7
:1014B0008EE896E060E070E00E94090B8E8F0E943B
:1014C000FB0B84E00E94EA0B559A5D981EBC0DB49C
:1014D00007FEFDCF8EB51EBC0DB407FEFDCF8EB549
:1014E0005D9A10928D06CE010E941908CE010E94CD
:1014F000E50687E020E031E190E080FF04C0FE01D6
:10150000E20FF11D32A395958795223011F02F5FE0
:10151000F3CF87E020E090E080FF04C0FE01E20FFF
:10152000F11D15A295958795223011F02F5FF3CF0D
:10153000C05CDF4F8EEF91E08993999387E593E04C
:101540008993999381E999E18993999383E193E14F
:101550008993999384E297E099838883C854D04013
:1015600080E588A389A381E08F8FC65BDF4F8FEF73
:101570008883CA54D040F8941092C0001092C100E1
:101580001092BF001092BE0080E38093CF00809144
:10159000C10088608093C10086E08093C100809183
:1015A00072008064809372007894F89487E060E021
:1015B0000E94920F80916A008F7C806180936A0004
:1015C000EE9A7894CE010E946906CE0161E070E047
:1015D00040E250E00E945E09CE0162E070E040E02F
:1015E00050E00E945E09CE010E94B709DF91CF91C1
:1015F0000895FC011382128286E195E09183808335
:10160000CF010E94110A089582E396E00E94F90A30
:101610000895F999FECF72BD61BDF89A80B508951D
:1016200081E08093D4066093B1061092D2061092A6
:10163000D30608952091B00630E08091AF06281BB4
:101640003109C90108954091AF068091B00648174D
:1016500018F02FEF3FEF0AC0E42FF0E0E157F94F09
:101660008081282F30E04F5F4093AF06C901089575
:10167000E091AF068091B006E81718F0EFEFFFEFAA
:1016800006C0F0E0E157F94F8081E82FF0E0CF018C
:10169000089508951092D8061092D70688EE93E028
:1016A000A0E0B0E08093D9069093DA06A093DB0621
:1016B000B093DC068EE195E09093D6068093D50634
:1016C0000895CF92DF92EF92FF920F931F93CF93E3
:1016D000DF937C016B018A018091D4068823A1F0FD
:1016E000C0E0D0E00DC0D701ED91FC91D601AC0F68
:1016F000BD1F0190F081E02DC7016C9109952196E5
:10170000C017D10780F304C0CB01642F0E94B80C2E
:10171000C801DF91CF911F910F91FF90EF90DF9063
:10172000CF900895DF93CF930F92CDB7DEB7FC0132
:1017300069838091D4068823C9F08091D3068032D2
:1017400038F081E090E09383828320E030E015C0A0
:101750008091D206E82FF0E0EE54F94F9981908302
:101760008F5F8093D2068093D30605C0CE01019689
:1017700061E00E94B80C21E030E0C9010F90CF91E8
:10178000DF9108950F93062F8091B10662EB76E00A
:101790004091D30621E00E94630C1092D206109271
:1017A000D3061092D4060F91089561E00E94C20BF7
:1017B0000895413208F040E2862F6FE876E00E94FB
:1017C0001A0C1092AF068093B006089521E00E9493
:1017D000D90B08952CB5382F33702C7F322B3CBD9C
:1017E0002DB590E0959587959595879581702E7F7D
:1017F000822B8DBD08958FE061E00E94920F80E101
:1018000061E00E94920F81E161E00E94920F8FE0FF
:1018100060E00E941F1080E160E00E941F1081E1E3
:1018200061E00E941F108CB580618CBD8CB5806416
:101830008CBD0895382F413210F040E042C08091B5
:10184000E1068823E1F791E09093E1062093E30617
:101850008FEF80934E0710920907415040930A077B
:101860004F5F9093E2068091E206330F832B8093C3
:10187000E2068091E406813041F41092E406809102
:10188000E2068093BB0085EC01C085EE8093BC002E
:101890008091E1068130E1F380910907841710F40B
:1018A0004091090720E030E00AC0FB01E20FF31F7E
:1018B000D901A751B94F8C9180832F5F3F4F2417D7
:1018C000A0F3842F08950F931F93582F122F4132A6
:1018D00010F081E04AC08091E1068823E1F782E0C0
:1018E0008093E1060093E3068FEF80934E071092FA
:1018F000090740930A07A9EEB6E0FB0102C08191F7
:101900008D938E2F861B8417D0F31092E206809160
:10191000E206550F852B8093E2068091E406813024
:1019200041F41092E4068091E2068093BB0085ECBE
:1019300001C085EE8093BC00112321F08091E10667
:101940008230E1F380914E078F3F11F480E00DC0AB
:1019500080914E07803211F482E007C080914E07DB
:10196000803311F084E001C083E01F910F9108954E
:10197000482F613210F081E008958091E1068430B3
:1019800011F082E0089560932C07ABE0B7E0842F5C
:101990009C01F90102C081918D938E2F841B8617C3
:1019A000D0F380E008951F920F920FB60F9211248A
:1019B0002F933F934F935F936F937F938F939F9357
:1019C000AF93BF93EF93FF938091B90090E0887F2E
:1019D00090708036910509F4F2C081369105CCF5FE
:1019E0008832910509F47BC089329105B4F48031C5
:1019F000910509F46FC0813191053CF4009709F419
:101A000047C1089709F04FC165C08831910509F4B5
:101A100066C0809709F047C182C08034910509F4FF
:101A2000A4C08134910544F48033910509F482C047
:101A3000C89709F038C189C08035910509F489C07B
:101A40008835910509F496C08834910509F02BC1B9
:101A5000AEC08839910509F413C189399105ECF4B8
:101A60008837910509F4ABC0893791054CF4883665
:101A7000910509F4A4C08037910509F014C19FC0F5
:101A80008838910509F4FCC08039910509F49DC09E
:101A90008038910509F007C198C0803B910509F491
:101AA000C6C0813B91054CF4803A910509F49FC072
:101AB000883A910509F0F7C0BAC0803C910509F455
:101AC000E3C0883C910509F4DFC0883B910509F02B
:101AD000EAC0C2C08091E2068093BB00CFC0909163
:101AE000090780910A07981768F490910907E92F70
:101AF000F0E0E751F94F80818093BB009F5F9093A6
:101B00000907BCC08091E306882309F44BC085ED2A
:101B10008093BC008091BC0084FDFCCFC2C080E2F9
:101B200080934E0785ED8093BC008091BC0084FDBE
:101B3000FCCFB7C080E380934E0785ED8093BC0057
:101B40008091BC0084FDFCCFACC088E380934E073D
:101B50009BC0809109079091BB00E82FF0E0E7510E
:101B6000F94F90838F5F80930907909109078091C7
:101B70000A0782C0809109079091BB00E82FF0E02E
:101B8000E751F94F90838F5F809309078091E306B7
:101B9000882341F085ED8093BC008091BC0084FDDA
:101BA000FCCF7FC081E08093E40684EA6EC085EDBF
:101BB0008093BC008091BC0084FDFCCF72C083E0A8
:101BC0008093E10610924D0759C080914D078032F5
:101BD00008F056C080914D079091BB00E82FF0E0CF
:101BE000E35DF84F90838F5F80934D0747C08091EE
:101BF0004D07803230F4E0914D07F0E0E35DF84F9F
:101C0000108285ED8093BC008091BC0084FDFCCFE8
:101C10001092E10660914D07E091E706F091E80629
:101C20008DE297E070E0099510924D072DC084E099
:101C30008093E10610922B0710922C07E091E506A5
:101C4000F091E606099580912C07882329F481E01C
:101C500080932C0710920B0790912B07E92FF0E04F
:101C6000E55FF84F80818093BB009F5F90932B07C7
:101C700090912B0780912C07981710F485EC01C0E8
:101C800085E88093BC000FC085EC8093BC0009C040
:101C900010924E0785ED8093BC008091BC0084FDBE
:101CA000FCCF1092E106FF91EF91BF91AF919F9110
:101CB0008F917F916F915F914F913F912F910F90F5
:101CC0000FBE0F901F901895089508951F920F92C0
:101CD0000FB60F9211242F933F938F939F93AF933F
:101CE000BF938091530790915407A0915507B091ED
:101CF0005607309157070196A11DB11D232F2D5F67
:101D00002D3720F02D570196A11DB11D20935707A7
:101D10008093530790935407A0935507B0935607A9
:101D200080914F0790915007A0915107B0915207B1
:101D30000196A11DB11D80934F0790935007A0936A
:101D40005107B0935207BF91AF919F918F913F91EF
:101D50002F910F900FBE0F901F9018959FB7F8947A
:101D600020914F07309150074091510750915207F1
:101D700086B5A89B06C08F3F21F02F5F3F4F4F4F86
:101D80005F4F9FBF542F432F322F2227280F311D23
:101D9000411D511D82E0220F331F441F551F8A959C
:101DA000D1F7B901CA010895789484B5826084BDE1
:101DB00084B5816084BD85B5826085BD85B581604F
:101DC00085BDEEE6F0E0808181608083E1E8F0E0AF
:101DD0001082808182608083808181608083E0E8DE
:101DE000F0E0808181608083E1E9F0E080818260C1
:101DF0008083808181608083E0E9F0E08081816080
:101E00008083E1ECF0E08081846080838081826067
:101E10008083808181608083E3ECF0E08081816059
:101E20008083E0ECF0E0808182608083E2ECF0E08F
:101E3000808181608083EAE7F0E080818460808334
:101E400080818260808380818160808380818068DE
:101E500080830895EF92FF920F931F93CF93DF93A8
:101E60007B018C013FB7F89480914F079091500708
:101E7000A0915107B091520726B5A89B05C02F3FEE
:101E800019F00196A11DB11D3FBFBA2FA92F982FA0
:101E90008827820F911DA11DB11D52E0880F991F47
:101EA000AA1FBB1F5A95D1F7EC0130C00E94EF1753
:101EB0003FB7F89480914F0790915007A091510738
:101EC000B091520726B5A89B05C02F3F19F0019687
:101ED000A11DB11D3FBFBA2FA92F982F8827820FB0
:101EE000911DA11DB11D32E0880F991FAA1FBB1FB4
:101EF0003A95D1F78C1B9D0B885E9340B8F20894FD
:101F0000E108F10801091109C851DC4FE114F1049D
:101F10000105110559F6DF91CF911F910F91FF90A7
:101F2000EF900895CF93DF93482F50E0CA0181517D
:101F30009A4FFC0134914F525A4FFA0184918823F1
:101F400069F190E0880F991FFC01E955FA4FA591BE
:101F5000B491FC01EB54FA4FC591D491662351F42E
:101F60002FB7F8948C91932F909589238C93888127
:101F700089230BC0623061F42FB7F8948C91932FB2
:101F8000909589238C938881832B88832FBF06C0EB
:101F90009FB7F8948C91832B8C939FBFDF91CF9147
:101FA0000895883071F1893068F4823031F18330DE
:101FB00020F4813009F042C01DC0833089F08430A4
:101FC000E9F512C08B3059F18C3028F48930E9F0F2
:101FD0008A30A1F51EC08C3031F18E3079F529C0E0
:101FE000809180008F7703C0809180008F7D8093E7
:101FF0008000089584B58F7702C084B58F7D84BD3D
:102000000895809190008F7707C0809190008F7D18
:1020100003C080919000877F809390000895809105
:10202000C0008F7703C08091C0008F7D8093C00077
:1020300008958091C200877F8093C2000895FF9227
:102040000F931F93F62E482F50E0CA01835F994FDC
:10205000FC012491CA0181519A4FFC0114914F5205
:102060005A4FFA0104910023C9F0222319F0822F5C
:102070000E94D10FE02FF0E0EE0FFF1FEB54FA4F5C
:10208000A591B4919FB7F894FF2021F48C911095FD
:10209000812302C08C91812B8C939FBF1F910F9144
:1020A000FF9008950895FC012485858530E0205C2B
:1020B0003F4F281B31092F733070C9010895FC016F
:1020C00094858585981719F42FEF3FEF06C0858515
:1020D000E80FF11D8685282F30E0C9010895DC0145
:1020E0001C969C911C971D968C911D97981719F41E
:1020F0002FEF3FEF10C01D968C911D97FD01E80F4B
:10210000F11D96851D968C911D978F5F8F731D967F
:102110008C93292F30E0C901089510925B0710922B
:102120005A0788EE93E0A0E0B0E080935C079093BC
:102130005D07A0935E07B0935F078EE295E09093F2
:1021400059078093580708950F931F93DF93CF93F8
:102150000F92CDB7DEB78C01698380910705882384
:1021600069F083E0BE016F5F7F4F41E050E00E9465
:1021700075151816190614F49C0107C081E090E04B
:10218000F8019383828320E030E0C9010F90CF9162
:10219000DF911F910F91089583E00E944C150895DF
:1021A0000F931F93CF93DF938C01FC010FC082E04C
:1021B0000E9432149C01FFEF8F3F9F0799F0F801B6
:1021C0008485E80FF11D2687F801C4878485C82F10
:1021D000D0E02196CF73D070F801858590E0C817C4
:1021E000D90729F7DF91CF911F910F910895FC0135
:1021F00080818E5F808380E867E376E042E450E090
:102200000E944B140895FC0181819081913A59F408
:10221000813209F04CC080E060E075E047E050E0BA
:102220000E944B1442C0913209F041C0803239F40F
:1022300080E095E067E070E00E94341536C082329D
:1022400009F035C082818093070580910005909147
:102250000105A0910205B0910305805B9440A04068
:10226000B04019F58091070580FD12C087E797E718
:1022700090930108809300082BE088E190E00FB66E
:10228000F894A895809360000FBE209360000DC065
:1022900088E10FB6F89480936000109260000FBE42
:1022A000A895109201081092000881E0089580E03E
:1022B000089508951F920F920FB60F9211242F9335
:1022C0003F934F938F939F93EF93FF938091C80019
:1022D00082FD19C04091CE008091C407282F30E0C4
:1022E0002F5F3F4F2F7330708091C50790E0281704
:1022F000390759F0E091C407F0E0EA55F84F42A3DE
:102300002093C40702C08091CE00FF91EF919F916E
:102310008F914F913F912F910F900FBE0F901F9073
:1023200018958091C4072091C50790E0805C9F4F6D
:10233000821B91098F739070892B11F00E945911A3
:1023400008951F920F920FB60F9211242F938F931F
:102350009F93EF93FF939091C6078091C7079817BB
:1023600031F48091C9008F7D8093C90010C0E09145
:10237000C707F0E0E85FF74F20818091C70790E042
:1023800001968F7390708093C7072093CE00FF91C2
:10239000EF919F918F912F910F900FBE0F901F90F3
:1023A0001895AF92BF92DF92EF92FF920F931F9317
:1023B000CF93DF93EC017A018B01DD24403081EE75
:1023C000580780E0680780E0780711F0DD24D39497
:1023D00091E0A92EB12CE889F989DD2069F0C501C9
:1023E0000C8C02C0880F991F0A94E2F7808360E08A
:1023F00079E08DE390E005C0108260E874E88EE13A
:1024000090E0A80197010E94241A215030404040DA
:102410005040569547953795279580E120303807ED
:1024200020F0DD2011F0DD24D6CFEC85FD85308352
:10243000EE85FF8520831D8EEA89FB89408121E09E
:1024400030E0C901088C02C0880F991F0A94E2F796
:10245000482B4083EA89FB894081C901098C02C06D
:10246000880F991F0A94E2F7482B4083EA89FB8979
:102470004081C9010A8C02C0880F991F0A94E2F7B3
:10248000482B4083EA89FB8980810B8C02C0220F94
:10249000331F0A94E2F7209528232083DF91CF9100
:1024A0001F910F91FF90EF90DF90BF90AF90089534
:1024B000FC01268D878D30E0205C3F4F281B3109C1
:1024C0002F733070C9010895FC01968D878D981780
:1024D00019F42FEF3FEF06C0878DE80FF11D82A1A1
:1024E000282F30E0C9010895DC015E969C915E972B
:1024F0005F968C915F97981719F42FEF3FEF10C0FC
:102500005F968C915F97FD01E80FF11D92A15F9698
:102510008C915F978F5F8F735F968C93292F30E03C
:10252000C9010895DC015D968C915D97882339F08F
:102530005096ED91FC915197808186FFF9CF5D9681
:102540001C920895DC0190968C919097282F30E092
:102550002F5F3F4F2F73307091968C91919790E041
:1025600028173907C9F390968C919097FD01E80FD1
:10257000F11DEE59FF4F608390962C9390975296E1
:10258000ED91FC915397208181E090E05B960C9057
:102590005B9702C0880F991F0A94E2F7282B2083CB
:1025A00081E05D968C935D975096ED91FC915197EB
:1025B00080818064808381E090E008951092A90773
:1025C0001092A80788EE93E0A0E0B0E08093AA07FD
:1025D0009093AB07A093AC07B093AD0780E495E070
:1025E0009093A7078093A6071092C7078091C7070B
:1025F0008093C6071092C5078091C5078093C407D2
:102600008DEC90E09093B3078093B2078CEC90E050
:102610009093B5078093B40788EC90E09093B70748
:102620008093B60789EC90E09093B9078093B80740
:102630008AEC90E09093BB078093BA078EEC90E011
:102640009093BD078093BC0784E08093BE0783E02E
:102650008093BF0787E08093C00785E08093C10720
:1026600081E08093C2070895CF93DF930E94D40E38
:1026700087E598E00E9457150E94640EC1E9D1E1F8
:102680000E94650E2097E1F30E949111F9CFCF923D
:10269000DF92EF92FF920F931F93CF93DF937C0112
:1026A0006B018A01C0E0D0E00FC0D6016D916D01D1
:1026B000D701ED91FC910190F081E02DC7010995C2
:1026C000C80FD91F015010400115110571F7CE0137
:1026D000DF91CF911F910F91FF90EF90DF90CF90FE
:1026E00008958230B9F0833028F4882351F0813086
:1026F000F9F40AC08430B9F0843090F08530C1F428
:1027000015C010926E00089580916F008D7F8093A8
:102710006F000895809170008D7F80937000089500
:102720001092710008951092720008951092730033
:1027300008951F920F920FB60F9211242F933F937B
:102740004F935F936F937F938F939F93AF93BF93B9
:10275000EF93FF938091480890914908A0914A080F
:10276000B0914B080097A105B10551F1E0914C08DB
:10277000F0914D08808190914E0889278083809147
:10278000480890914908A0914A08B0914B08181642
:1027900019061A061B060CF5809148089091490805
:1027A000A0914A08B0914B080197A109B109809303
:1027B000480890934908A0934A08B0934B080DC06D
:1027C00083E00E947113E0914C08F0914D089081D4
:1027D00080914E08809589238083FF91EF91BF916E
:1027E000AF919F918F917F916F915F914F913F91A9
:1027F0002F910F900FBE0F901F901895282F80914A
:1028000051088823C1F057FF1AC015C0289890932B
:1028100050088091F1008193E217F307B9F7411551
:10282000510539F08091F200882319F48BE68093EA
:10283000E800AFBF02C04FEF5FEFCA010895AFB726
:10284000F89427702093E9008091F200282F30E05F
:10285000241735070CF4A901FB019B01240F311D3E
:1028600094E6DACFDF93CF930F92CDB7DEB7BE01F8
:102870006F5F7F4F41E050E00E94FE13019719F017
:102880002FEF3FEF03C08981282F30E0C9010F905F
:10289000CF91DF910895FF920F931F93F82E142F7D
:1028A000052F4091540850915508212F302FC90110
:1028B000DC01FB016EEF29C0F7FE02C0949101C05C
:1028C0009081209152083091530824173507ACF4B9
:1028D0008091E8008570E1F38091E80082FF03C0F9
:1028E0002FEF3FEF17C09093F100C90101968F734E
:1028F0009070892B11F46093E8002F5F3F4F309365
:10290000530820935208119731961097A9F6812FFA
:10291000902F9C01C9011F910F91FF9008951F9363
:10292000782FE92F162F2091520830915308A0914B
:102930005408B09155082A173B07C4F48091E80069
:102940008570E1F38091E80082FD16C0812F90E050
:102950000196880F991F8093F100C90101968F732A
:102960009070892B19F48EEF8093E8002F5F3F4F12
:102970003093530820935208209152083091530805
:102980002A173B07A4F48091E8008570E1F3809159
:10299000E80082FD12C083E08093F100C901019636
:1029A0008F739070892B19F48EEF8093E8002F5F5E
:1029B0003F4F309353082093520840915208509152
:1029C0005308872F9E2FFC0170E06EEF43C0949157
:1029D0004A175B07A4F48091E8008570E1F38091C9
:1029E000E80082FF02C020E00DC09093F100CA0110
:1029F00001968F739070892B11F46093E8004F5FFC
:102A00005F4F21E04A175B07A4F48091E8008570CE
:102A1000E1F38091E80082FF02C080E00DC01092D7
:102A2000F100CA0101968F739070892B11F46093A5
:102A3000E8004F5F5F4F81E0319690E030E0822305
:102A40009323892B31F4509353084093520880E02C
:102A500009C07F5F711708F4BACF509353084093B1
:102A6000520881E01F9108959C018091E80082FF47
:102A7000FCCFF901260F311D03C08091F100819335
:102A8000E217F307D1F7289884E6809350088BEF7C
:102A90008093E800CB0108958093E9008091F200D3
:102AA000882319F08AE38093E8000895089510922E
:102AB000510881E08093D70080EA8093D80082E1BA
:102AC00089BD09B400FEFDCF61E070E080E090E0D8
:102AD0000E942A0F80E98093D8008CE08093E20066
:102AE0001092E000559A209A08955F926F927F921B
:102AF0008F929F92AF92BF92CF92DF92EF92FF920E
:102B00000F931F93CF93DF93E82E842E752E809121
:102B10005108882371F18B01242F352FC901EC0155
:102B2000AAEFFA2EF7E09F2E9E20E0E45E2E8E2D77
:102B300090E070E2A72EB12CA822B9226AE3662E9B
:102B400050E4C52ED12CC822D92258C09FB7F89482
:102B50009092E9008091E80085FD02C020E004C069
:102B60008091F200252D281B9FBF222361F4FA9447
:102B700019F42FEF3FEF4DC061E070E080E090E08E
:102B80000E942A0F3BC0822F90E0C817D9070CF48F
:102B90002C2FC21BD1094FB7F8949092E900A114D1
:102BA000B10421F406C01092F10021502223D9F77C
:102BB00019C0E7FC03C0F801922F10C0C801322FE2
:102BC00006C0FC010196E491E093F10031503323FB
:102BD000C1F706C081918093F10091509923D1F7FC
:102BE000020F111D8091E80085FF05C0209729F490
:102BF000C114D10411F06092E8004FBF209709F092
:102C0000A5CF5D9884E680934F08282D372DC90104
:102C10009C01C901DF91CF911F910F91FF90EF901F
:102C2000DF90CF90BF90AF909F908F907F906F90EC
:102C30005F9008951F920F920FB60F9211242F9359
:102C40003F934F935F936F937F938F939F93AF9334
:102C5000BF93EF93FF938091E1001092E100982FD2
:102C600083FF0FC01092E90081E08093EB00109287
:102C7000EC0082E38093ED001092510888E080938D
:102C8000F00092FF34C083E08093E9008091F2006D
:102C9000882319F08AE38093E8008FB7F89492E0D4
:102CA0009093E9009091F2008FBF992321F088E57D
:102CB00097E00E94D01080914F08882351F08091B6
:102CC0004F08815080934F0880914F08882309F462
:102CD0005D9A80915008882351F08091500881506E
:102CE0008093500880915008882309F4289AFF9116
:102CF000EF91BF91AF919F918F917F916F915F9174
:102D00004F913F912F910F900FBE0F901F901895EC
:102D10000F931F93DF93CF930F92CDB7DEB7198236
:102D20008E010F5F1F4FC8010E94F710C8010E945B
:102D30002719898190E00F90CF91DF911F910F911A
:102D400008951F920F920FB60F921124EF92FF92E7
:102D50001F932F933F934F935F936F937F938F9323
:102D60009F93AF93BF93EF93FF93DF93CF93CDB731
:102D7000DEB76197DEBFCDBF1092E9008091E80019
:102D800083FF14C1FE0131969E01275F3F4F03C0B0
:102D90008091F1008193E217F307D1F7289884E638
:102DA0008093500882EF8093E800998197FF05C0D7
:102DB0008091E80080FFFCCF03C08EEF8093E80095
:102DC000292F30E0C90180769070892B09F0C7C0A7
:102DD0008A81882329F41092F1001092F100DBC05F
:102DE000813009F4D8C0833009F4D5C0853049F466
:102DF0008091E80080FFFCCF8B8180688093E300A6
:102E0000CAC0863009F081C01C81EF80F88412307E
:102E1000C1F51092E90010925308109252081092D6
:102E20005508109254080E94881699E0FE013996C0
:102E3000DF01292F1D922A95E9F799871A8791E0DA
:102E40009E8790E8988B9AEF998B20915208309149
:102E50005308275F3F4F3C872B878D871092E900EF
:102E60001092530810925208F0925508E0925408BC
:102E700080E0BF0149E050E00E944B140E94881698
:102E80008AC01092E9001092530810925208F092F2
:102E90005508E0925408123241F482E290E00E9418
:102EA0001F19892B09F47BC076C0113079F488E0B2
:102EB000E816F10419F481E08093560880915608D1
:102EC000882309F070C0EAE9F6E018C0133009F071
:102ED00066C08B81882319F4E9E7F6E00FC08230E1
:102EE00021F48DE796E060E106C0813009F057C01B
:102EF0008EE896E06BE00E948F144BC0449180E80E
:102F0000BF0150E00E944B1446C0873009F447C00F
:102F1000883021F481E08093F1003DC08930D9F5FB
:102F200023703070232BD9F5EFEBF6E091E031E020
:102F300026E39093E9003093EB0084918093EC00BA
:102F40002093ED009F5F3196953099F78EE780933F
:102F5000EA001092EA008B81809351081CC08F8197
:102F600098851092E900109253081092520890939D
:102F70005508809354088D81882329F4CE01019649
:102F80000E94031106C0823051F4CE0101960E94C6
:102F9000F017882321F08EEF8093E80007C081E2CC
:102FA0008093EB0003C0ECEAF6E0A8CF6196DEBFA9
:102FB000CDBFCF91DF91FF91EF91BF91AF919F91E5
:102FC0008F917F916F915F914F913F912F911F91C1
:102FD000FF90EF900F900FBE0F901F9018950895DF
:102FE000FC0191818081813A31F4913089F080E057
:102FF000933089F40DC0813269F49B3021F48281D1
:103000008093080505C09A3029F4828180930905D0
:1030100081E0089580E00895EF92FF920F931F934F
:103020008C01E62EDC01ED91FC910480F581E02D10
:103030000995F82ED801ED91FC910680F781E02DDD
:10304000C8016E2D09958F2D90E01F910F91FF9073
:10305000EF9008951092580810925C0810925B0847
:1030600080E595E090935A08809359080895EF926F
:10307000FF920F931F93DF93CF930F92CDB7DEB7DD
:1030800089838B017A0184E0BE016F5F7F4F41E04D
:1030900050E00E94751584E4B801A7010E947515DF
:1030A0000F90CF91DF911F910F91FF90EF900895B6
:1030B00082E048E050E00E9437180895FC01168233
:1030C0001782108611861286138614823496BF01E9
:1030D0000E9458180895DC01683810F0685829C01B
:1030E000E62FF0E067FF13C0E058F04081E090E089
:1030F00002C0880F991FEA95E2F7809514962C91EB
:103100001497282314962C93149760E012C0EF5B59
:10311000F84F6491662319F420E030E01DC067FF8A
:1031200008C014968C9114978D7F14968C931497E5
:103130006F77FD0190E0662321F08681861709F400
:1031400016829F5F31969630B1F7CD011496BD017E
:103150000E94581821E030E0C9010895CF93DF9311
:10316000DC01683810F0685825C0E62FF0E067FFF2
:1031700012C0E058F04081E090E002C0880F991F33
:10318000EA95E2F714962C911497282B14962C9319
:10319000149760E00FC0EF5BF84F64916623D9F19C
:1031A00067FF08C014968C911497826014968C93D4
:1031B00014976F7716968C9116978617A9F1179624
:1031C0008C911797861781F118968C91189786170E
:1031D00059F119968C911997861731F11A968C919D
:1031E0001A97861709F11B968C911B978617E1F0A9
:1031F000ED01E0E0F0E09E2F8E81882321F4EA0FBC
:10320000FB1F668306C09F5F31962196E630F1056D
:1032100091F7963049F481E090E013969C938E9359
:10322000129720E030E007C0CD011496BD010E9446
:10323000581821E030E0C901DF91CF91089580E86E
:1032400063EC76E045E650E00E944B140895FC01E3
:1032500080818F5F808380E868E277E049E150E019
:103260000E944B140895E89409C097FB3EF4909592
:103270008095709561957F4F8F4F9F4F9923A9F04F
:10328000F92F96E9BB279395F695879577956795DE
:10329000B795F111F8CFFAF4BB0F11F460FF1BC022
:1032A0006F5F7F4F8F4F9F4F16C0882311F096E9B5
:1032B00011C0772321F09EE8872F762F05C0662363
:1032C00071F096E8862F70E060E02AF09A95660F1C
:1032D000771F881FDAF7880F9695879597F90895D5
:1032E00097F99F6780E870E060E008959FEF80ECB9
:1032F000089500240A94161617061806090608955C
:1033000000240A9412161306140605060895092EC1
:103310000394000C11F4882352F0BB0F40F4BF2B30
:1033200011F460FF04C06F5F7F4F8F4F9F4F089570
:1033300057FD9058440F551F59F05F3F71F0479566
:10334000880F97FB991F61F09F3F79F0879508954B
:10335000121613061406551FF2CF4695F1DF08C06A
:10336000161617061806991FF1CF86957105610587
:1033700008940895E894BB2766277727CB0197F92F
:1033800008950BD0C4CFB5DF28F0BADF18F095232D
:1033900009F0A6CFABCF1124EECFCADFA0F3959FE3
:1033A000D1F3950F50E0551F629FF001729FBB272C
:1033B000F00DB11D639FAA27F00DB11DAA1F649FD8
:1033C0006627B00DA11D661F829F2227B00DA11D8B
:1033D000621F739FB00DA11D621F839FA00D611D11
:1033E000221F749F3327A00D611D231F849F600D32
:1033F000211D822F762F6A2F11249F5750408AF06B
:10340000E1F088234AF0EE0FFF1FBB1F661F771FF6
:10341000881F91505040A9F79E3F510570F060CF32
:10342000AACF5F3FECF3983EDCF3869577956795DE
:10343000B795F795E7959F5FC1F7FE2B880F911D14
:103440009695879597F90895A1E21A2EAA1BBB1BA2
:10345000FD010DC0AA1FBB1FEE1FFF1FA217B30760
:10346000E407F50720F0A21BB30BE40BF50B661F76
:10347000771F881F991F1A9469F76095709580953A
:1034800090959B01AC01BD01CF010895EE0FFF1F88
:0C3490000590F491E02D0994F894FFCF12
:10349C000000000000000000000000000000000020
:1034AC000000000000000000000000000000000010
:1034BC000000000000000000000000000000000000
:1034CC0000000000000000000000000000000000F0
:1034DC0000000000000000000000000000000000E0
:1034EC0000000000000000000000000000000000D0
:1034FC0000000000000000000000000000000000C0
:10350C0000000000000000000000000000000000AF
:10351C000000000000000000010101030307070F79
:10352C000F0F0F0F0F070301000000000000000039
:10353C00000000000000000000000000000000007F
:10354C00000000000000000000000000000000006F
:10355C00000000000000000000000000000000005F
:10356C00000000000000000000000000000000004F
:10357C00000000000000000000000000000000003F
:10358C000000010F07000000000000000000000018
:10359C0003070F3F7F7FFFFFFFFFFFFFFFFFFFFFD3
:1035AC00FFFFFEFEFCFCFCFC7800000000000000AD
:1035BC0000000000000000000000000000000000FF
:1035CC0000000000000000000000000000000000EF
:1035DC0000000000000000000000000000000000DF
:1035EC000000000000000000003FFFFFFFFFFFFF96
:1035FC00FF3800000000000183E1F37B7F3F3F1F99
:10360C001F3FFFFFFF1F3F7F7FFFE7C787020202BD
:10361C0080E0F0F8F8F8FCFEFEFFFFFFFFFFFFFF75
:10362C00FF1F0F0707030301000000000000060F37
:10363C001F1F1F1F3F3F3F3F3F3F3F3F1F1F0F0FAE
:10364C00070300003F3F3F3F3F3F3F3F3F3F3F3F70
:10365C003F1F1F0F07000000003F3F3F3F3F1F0F62
:10366C001F1F1F1F1E1F1F1F0EFFFFFFFFFFFFFF50
:10367C00FF030307070F1F1F1F0E04808080808726
:10368C00CFCFDFDFDFDFE0E0E0E0E0F070703000B4
:10369C000000000000000000000000008080C0C19D
:1036AC00E1E1F1F3FFFFFFFFFFFFFF7F3F0F00FFA3
:1036BC00FFFFFFFFFF1F0307070F0F0FBFFFFFFFEA
:1036CC00FEF8F0070F1F1F1F3F3F3C3C383838FFF8
:1036DC00FFFFFFFFFFFF000000FFFFFFFFFFFFFFEB
:1036EC00800000000000000000C0FFFFFFFFFFFF94
:1036FC00FFFFFFDF8F8F0F070301000000003FFF6C
:10370C00FFFFFFFFF8C000000000000000000000F9
:10371C000000000F7FFFFFFFFFFFFFFFFFFFFFFF1A
:10372C00FFFFFEFEFEFCFCF8F8F0F0E0C08000C0ED
:10373C00FFFFFFFFFFFFFFF7F0F0E0C0C08080004D
:10374C0000000080E0E0E0F0F0F0F0F0F0F0F0F0DD
:10375C00F0F0F0F0F0F0000000F0F0F0F0F0F0F02D
:10376C0000000000000000000000F0F0F0F0F0F0AD
:10377C00C0008080C0E0E0E0E0E0000000F0F0F08D
:10378C00F0F0F080000000000000000000000000DD
:10379C00000000808080808080808080800000001D
:1037AC00000000000000000000000000000000000D
:1037BC0000E0FCFCFCFCFCF8F83000000000000011
:1037CC0000000000000000000000000000000000ED
:1037DC0000000000000000000000000000000000DD
:1037EC0000000000000000000000000000000000CD
:1037FC0000000000000000000000000000000000BD
:10380C0000000000000000000000000000000000AC
:10381C00000000000000000000000000000000009C
:10382C00000000000000000000000000000000008C
:10383C00000000000000000000000000000000007C
:10384C00000000000000000000000000000000006C
:10385C00000000000000000000000000000000005C
:10386C00000000000000000000000000000000004C
:10387C00000000000000000000000000000000003C
:10388C00000000000000000000000000000000002C
:10389C0000E1000000000000010103020100070626
:1038AC00050400000000B308A80800000000920BFB
:1038BC00610B1A0B230B380B490B00000000A410F2
:1038CC00471353106F105F10CC10D0100000000085
:1038DC00A2124713581274126412921200000000C4
:0A38EC000C184713AE186B185E1895
:00000001FF
